:020000040800F2
:1000000018050020450100082D160008E110000821
:1000100029160008B10B0008132200080000000098
:100020000000000000000000000000005D19000852
:10003000550D000800000000ED170008711A0008B7
:100040005F0100085F0100085F0100085F01000810
:100050005F0100085F0100085F0100085F01000800
:100060005F0100085F0100085F0100085F010008F0
:100070005F0100085F0100085F0100085F010008E0
:100080005F0100085F0100085F0100085F010008D0
:100090005F0100085F0100085F0100085F010008C0
:1000A0005F0100085F0100085F0100085F010008B0
:1000B000391E00085F0100085F0100085F010008A9
:1000C0005F0100085F0100085F0100085F01000890
:1000D0005F0100080D1F00085F0100085F010008B4
:1000E0005F0100085F0100085F0100085F01000870
:1000F0005F0100085F0100085F0100085F01000860
:100100005F0100085F0100085F0100085F0100084F
:100110005F0100085F0100085F0100085F0100083F
:100120005F0100085F0100085F0100085F0100082F
:10013000DFF80CD000F0DAFB004800477D2D000806
:10014000180500200648804706480047FEE7FEE7FE
:10015000FEE7FEE7FEE7FEE7FEE7FEE7FEE7FEE777
:10016000B11A000831010008F0B480EA0102D40F8E
:100170004200B2EB410F02D20246084611464A0045
:1001800042D0C30DDDB2C1F3C752AD1A202D35DA0E
:10019000C1F3160141F4000204B15242C5F1200638
:1001A00002FA06F12A411044B3EBD05F23D0C4B168
:1001B000012DA0EBC35009DCF0BC4FF0004202EA75
:1001C000C352DBB200F5000000F0D5BA400000F1E8
:1001D000807000EBC350A0F1807040EAD1704900FC
:1001E00009E0490841EAC071A0EBC35000F50000E6
:1001F000400800EBC350F0BC00F0B4BA61420122E9
:1002000002EB4101001BF6E7F0BC704781F00041B2
:10021000AAE780F00040A7E780EA010210B502F0EB
:100220000043400022D04A001FD0010E01EB1261B2
:10023000C0F35600C2F3560240F4000042F400023C
:10024000A0FB022000047F39140400D0401C50EAB7
:10025000124001D44000491EC2B20C0604EBD0107B
:10026000401C4008802A02D003E0002010BD20F08E
:100270000100002900DA0020184310BD30B480EAE4
:10028000010202F0004530F0004221F0004013D09E
:1002900090B1C30DD40DC2F31601C0F31600E41AD9
:1002A00041F4000140F400027D34914201D3641C0A
:1002B00000E04900002C02DA30BC002070474FF407
:1002C00000000023914201D3891A034340084FEAFA
:1002D0004101F7D151B1914202D14FF0004105E007
:1002E00002D24FF0010101E06FF0010103EBC450B5
:1002F000284430BC00F036BA2DE9FE4F804681EA32
:100300000300C00F0C46009021F0004123F000458F
:10031000B8EB0200A94105D24046214690461C4652
:100320000B46024623F00040104347D0270DC7F389
:100330000A00C3F30A510290401A019040286BDA78
:10034000C3F3130040F4801B0098924620B10023B1
:10035000D2EB030A63EB0B0B01985946C0F1400244
:10036000504600F0CEF906460D4650465946019AD1
:1003700000F0E6F910EB08006141002487EA115211
:1003800084EAE7731A4340D0009A62B3019A012AC3
:100390004FEA075215DC001B61EB02014FF00042EF
:1003A00002EA0752CDE90042001C41F580113246B5
:1003B0002B4600F01DFA03B0BDE8F08F4046214601
:1003C000F9E7001B61EB0201001C41F580130018E6
:1003D0005B412018A2F5001747EB030140EAD570F6
:1003E000B6196D4111E06D084FEA360645EAC07551
:1003F0004FEA0752001B61EB0201001C41F580111E
:1004000049084FEA30000019514132462B4603B0EB
:10041000BDE8F04F00F0DDB9009801224000002354
:10042000D0EB020263EBE073009821464FEAE074E0
:10043000B8EB000061EB0401E9E783F000435BE700
:1004400081F0004158E72DE9FE4F81EA030404F0F2
:10045000004421F0004100944FF0000B23F00043D2
:1004600050EA01045ED052EA03045BD0C3F30A549D
:10047000C1F30A552C44A4F2F3340194A0FB0254B6
:10048000C1F3130141F48011C3F3130343F4801348
:1004900001FB024400FB034E840A970A44EA81549C
:1004A00047EA8357A4FB076802958D0A05FB078579
:1004B0004FEA932C04FB0C542705029D4FEA065883
:1004C00047EA1637B5EB08056EEB070C870E920E60
:1004D00047EA811742EA8312A7FB0201B6EB0B0140
:1004E00064EB00042B0D43EA0C335E1844EB1C5004
:1004F000DA465146E7FB0201C5F313044FEA0B331A
:1005000043EA14534FEA0432019C43EA0603A4F180
:100510000C040294009CCDE900B400F069F903B02A
:10052000BDE8F08F00200146F9E72DE9F04D81EAA2
:10053000030404F0004B21F0004514464FF0000A7C
:1005400023F0004150EA050220D054EA01021DD0F8
:10055000C5F30A570246C5F31303C1F31300C1F3F1
:100560000A5640F4801543F48013A7EB0608101BCD
:10057000D64608F2FD3873EB050002D308F10108F6
:1005800001E092185B41B8F1000F03DA0020014648
:10059000BDE8F08D00204FF48011064684460EE041
:1005A000171B73EB050705D3121B63EB050306430B
:1005B0004CEA010C49084FEA300092185B4150EABE
:1005C0000107EDD152EA030012D082EA040083EA67
:1005D0000501084305D0101BAB4106D201220023C0
:1005E00006E000224FF0004302E06FF001025310DA
:1005F0001AEB06004CEB085110EB0A0041EB0B0123
:10060000BDE8F04D00F0E5B896230022114600F059
:10061000B2B820F00040C10DC0F3160040F4000055
:100620007F2901DA00207047962903DCC1F1960189
:10063000C840704796398840704700F0004230F05B
:1006400000400AD0C10D01F56071C0F3160042EA06
:100650000151C2084007114370470020014670470E
:10066000002801DBC0F10040002901DBC1F100419D
:100670008142704730B50B460146002020220124FC
:1006800009E021FA02F59D4205D303FA02F5491B60
:1006900004FA02F52844151EA2F10102F1DC30BD76
:1006A0002DE9F05F0546002092469B4688460646A7
:1006B000814640241BE0284641464746224600F03A
:1006C0002FF853465A46C01A914110D31146184686
:1006D000224600F016F82D1A67EB01084F46224615
:1006E0000120002100F00DF817EB00094E41201EFB
:1006F000A4F10104DFDC484631462A464346BDE802
:10070000F09F202A04DB203A00FA02F10020704713
:100710009140C2F1200320FA03F31943904070473F
:10072000202A04DB203A21FA02F00021704721FA46
:1007300002F3D040C2F120029140084319467047AD
:10074000202A06DBCB17203A41FA02F043EAE07395
:1007500006E041FA02F3D040C2F120029140084382
:10076000194670470029A8BF7047401C490008BFC0
:1007700020F00100704710B4B0FA80FC00FA0CF0D1
:1007800050EA010404BF10BC704749B1CCF1200409
:1007900021FA04F411FA0CF118BF01212143084396
:1007A000A3EB0C01CB1D4FEA00614FEA102042BFC2
:1007B000002010BC704700EBC35010440029A4BFB8
:1007C00010BC7047401C490008BF20F0010010BC5D
:1007D000704710B5141E73F1000408DA401C41F193
:1007E000000192185B411A4301D120F0010010BDB5
:1007F0002DE9F04D92469B4611B1B1FA81F202E02B
:10080000B0FA80F220329046FFF77BFF04460F4695
:1008100040EA0A0041EA0B0153465A46084313D006
:10082000114653EA010019D0C8F140025046FFF7C3
:1008300077FF05460E46504659464246FFF761FF90
:10084000084305D0012004E020463946BDE8F08D7C
:100850000020054346EAE0762C4337430A986305B7
:10086000E40AA0EB08000022FD0A44EA47540A30DB
:1008700002D500200146E9E7010510196941DDE9CB
:10088000084500196941BDE8F04DA2E7C1F30A52DD
:10089000C1F3130140F2FF3341F480119A4202DAAE
:1008A00000200146704740F233439A42A2F233429D
:1008B00002DC5242FFF734BFFFF723BF30B5041EFE
:1008C00071F1000404DB4FF00044404264EB01018D
:1008D000141E73F1000405DB1C464FF00043524226
:1008E00063EB0403994208BF904230BD064C074DAC
:1008F00006E0E06840F0010394E8070098471034F0
:10090000AC42F6D3FFF718FC40C7000860C70008E8
:1009100021B1826842F00102826003E0826822F025
:1009200001028260704721B1826842F48072826065
:1009300003E0826822F480728260704710B504463A
:100940001248844208D10121401500F08DFF00219A
:10095000601500F089FF17E00D48844208D101219D
:10096000001500F081FF0021201500F07DFF0BE055
:100970000848844208D10121C80300F075FF002116
:100980004FF4004000F070FF10BD00000024014053
:1009900000280140003C0140014600208A6802F026
:1009A00004020AB1012000E0002070470146002047
:1009B0008A6802F008020AB1012000E000207047B6
:1009C00030B502460020002350680F4C20400D79BE
:1009D0000C6844EA05242043506090680B4C20408A
:1009E000D1E902542C434D7944EA450420439060F8
:1009F000D06A20F470000C7C641EE4B2234340EA09
:100A00000350D06230BD0000FFFEF0FFFDF7F1FFA4
:100A1000F0B504460D4600200021092D11DDE068E7
:100A2000A5F10A0606EB4607072606FA07F18843F2
:100A3000A5F10A0606EB460603FA06F10843E06054
:100A40000CE0206905EB4507072606FA07F1884305
:100A500005EB450603FA06F108432061072A0FDA81
:100A6000606B561E06EB86071F2606FA07F18843C1
:100A7000561E06EB860605FA06F10843606322E07F
:100A80000D2A0FDA206BD61F06EB86071F2606FA03
:100A900007F18843D61F06EB860605FA06F10843E0
:100AA000206310E0E06AA2F10D0606EB86071F2620
:100AB00006FA07F18843A2F10D0606EB860605FA51
:100AC00006F10843E062F0BD816841F008018160F1
:100AD000704721B1826842F4A002826003E082681C
:100AE00022F4A00282607047816841F004018160B5
:100AF0007047000000B587B001214FF4047000F08A
:100B0000A3FE00F061FD4FF4004000F071FE0320F1
:100B1000ADF8040000208DF8070001A9224800F07C
:100B2000A8F92248FFF70AFF0020029001208DF863
:100B30000C008DF80D004FF460200490002005900B
:100B400002208DF8180002A91848FFF739FF01218B
:100B50001648FFF7E8FE01211448FFF7D9FE1348B5
:100B6000FFF7B2FF00BF1148FFF720FF0028FAD1BE
:100B70000E48FFF7B9FF00BF0C48FFF70DFF002834
:100B8000FAD10523012200210848FFF741FF052380
:100B9000022201210548FFF73BFF01210348FFF72F
:100BA00098FF07B000BD000000080140002401408C
:100BB00000BFFEE721B1026842F00102026004E0DA
:100BC00002684FF6FE731A400260704701684FF6E4
:100BD000FE72114001600021016041608160C160CE
:100BE0004B49884208D14A490839496841F00F0108
:100BF000474A083A51608AE045491431884208D191
:100C000043490839496841F0F001414A083A5160C6
:100C10007DE03F492831884208D13D49083949687B
:100C200041F470613A4A083A516070E038493C3109
:100C3000884208D136490839496841F47041344A3C
:100C4000083A516063E032495031884208D1304956
:100C50000839496841F470212D4A083A516056E03C
:100C60002B496431884208D129490839496841F43F
:100C70007001274A083A516049E025497831884295
:100C800008D123490839496841F07061204A083A7F
:100C900051603CE01F49884206D1011F096841F0BC
:100CA0000F01021F116032E01A491431884208D145
:100CB0001849091F096841F0F001164A121F116016
:100CC00025E014492831884208D11249091F0968D2
:100CD00041F470610F4A121F116018E00D493C3158
:100CE000884208D10B49091F096841F47041094A3B
:100CF000121F11600BE007495031884207D10549A6
:100D0000091F096841F47021024A121F11607047DF
:100D1000080002400804024010B50022026847F6AD
:100D2000F0739A430C6A8B6823430C6923434C6924
:100D300023438C692343CC6923434C6A23438C6A45
:100D400023431A430260CB6843600B6883604B689F
:100D5000C36010BD7047000051B18200A2F1C042D3
:100D6000126842F001038200A2F1C042136009E060
:100D70008200A2F1C0421268034B1A408300A3F123
:100D8000C0431A6070470000FEFF0F00D0E9011257
:100D90001143C268114302691143426911438269D8
:100DA0001143C2691143026A1143426A1143826AC4
:100DB0001143C26A1143026B114302689200A2F10F
:100DC000C0421160816808290BD101688900A1F136
:100DD000C041096841F0400201688900A1F1C041A9
:100DE0000A60416B0968426B526841EA0211426B2A
:100DF000926841EA0221426B928941EA0241426BC8
:100E0000128A41EA0251426B127D41EA0261426B51
:100E1000926911430268521C9200A2F1C042116013
:100E2000C16AB1F5804F1BD1816B0968826B526832
:100E300041EA0211826B926841EA0221826B128AB6
:100E400041EA0251826B127D41EA0261826B926932
:100E5000114302689200A2F1C042C2F8041107E0F7
:100E60006FF0704201688900A1F1C041C1F804210E
:100E700070472DE9F041024600250026002000239E
:100E80000024002791F803C00CF00F0591F803C06F
:100E90000CF0100CBCF1000F03D091F802C04CEA2A
:100EA000050591F800C0BCF1000F31D01468002096
:100EB0002BE04FF0010C0CFA00F3B1F800C00CEA83
:100EC00003069E4220D183004FF00F0C0CFA03F76B
:100ED000BC4305FA03FC4CEA040491F803C0BCF1DE
:100EE000280F06D14FF0010C0CFA00FCC2F814C018
:100EF0000AE091F803C0BCF1480F05D14FF0010C96
:100F00000CFA00FCC2F810C0401C0828D1D31460B1
:100F1000B1F800C0BCF1FF0F34DD546800202EE0B2
:100F200000F1080C4FF0010808FA0CF3B1F800C00A
:100F30000CEA03069E4221D183004FF00F0C0CFAFD
:100F400003F7BC4305FA03FC4CEA040491F803C020
:100F5000BCF1280F05D100F1080C08FA0CF8C2F812
:100F6000148091F803C0BCF1480F07D100F1080CC0
:100F70004FF0010808FA0CF8C2F81080401C08284D
:100F8000CED35460BDE8F081F0B50A4600230024BA
:100F90000021002500F00046B6F1004F02D11D4EA1
:100FA000F16901E01B4E7168C0F3034583B200F4A0
:100FB0004016B6F5401F08D121F07061154E7668D5
:100FC00026F07066134F7E6012E000F48016B6F5CE
:100FD000801F06D1032606FA05F4A14341F0706193
:100FE00006E0460D360103FA06F6B14341F07061A2
:100FF00022B1460D360103FA06F6314300F00046F1
:10100000B6F1004F02D1034EF16101E0014E716073
:10101000F0BD0000000001400246002093680B4034
:101020000BB1012000E00020704741617047016171
:101030007047000070B500240A25002607E0074825
:1010400000880444052001F049FE701CC6B2AE427F
:10105000F5DBB4FBF5F080B270BD00002400002089
:1010600070B5FFF7E7FF0546FFF7CEFA04461449CF
:101070002046FFF7D1F805464FF08B41FFF7FEF809
:1010800004462046FFF7D9FA05462A460B460DA02E
:1010900001F068F90F492046FFF7E2FA0BD2012070
:1010A0000D4908604FF4FA7001F018FE00200B495A
:1010B000C1F8A00102E0002007490860204670BD89
:1010C000000020424865696768743A2566206D6DA6
:1010D000202C000000002041A081214200802142FC
:1010E00000BFFEE708B50121442000F0ADFB012060
:1010F000ADF8000028208DF8030069460648FFF788
:10110000B8FE1C20ADF8000048208DF803006946A9
:101110000248FFF7AEFE08BD00080140001801407C
:1011200010B50446012C01D12249087021480078ED
:1011300001282AD12048006801280AD01F480068E9
:1011400038B11E48001F006818B11C4808380068F4
:10115000D8B90A2001F0C2FD0020164908701648CF
:101160000068012800D110BD1448006808B90220A9
:10117000F9E71248001F006808B90320F3E70F4899
:1011800008380068A0B90420EDE70B48006878B97A
:101190000A48006801280BD10848001F0068012890
:1011A00006D1064808380068012801D101490870B5
:1011B0000020D8E720000020000121421001234236
:1011C00070B506460F484088401E83B20D4800881F
:1011D000401E82B20021084600F050F800240CE0C6
:1011E000002504E0304600F0BFF9681C85B20548D0
:1011F0004088A842F6DC601C84B202480088A04205
:10120000EEDC70BD1800002010B504461348847150
:101210005CB90821362000F097F94FF4F0700F49BF
:1012200048804FF4A070088016E02821362000F096
:101230008BF9B62000F082F9002000F08FF902202F
:1012400000F08CF93B2000F089F94FF4A0700349BD
:1012500048804FF4F070088010BD00001800002096
:1012600070B504460D4616462B46224629462046B2
:1012700000F004F8304600F077F970BD70B5044610
:101280000D462A2000F05AF92646E11704EB1161B9
:10129000C1F30F2000F062F9E11704EB11610912AC
:1012A000A4EB012188B200F059F91646D11702EBE0
:1012B0001161C1F30F2000F051F91646D11702EB6E
:1012C00011610912A2EB012188B200F047F92B202D
:1012D00000F034F92E46E91705EB1161C1F30F2038
:1012E00000F03CF9E91705EB11610912A5EB0121AA
:1012F00088B200F033F91E46D91703EB1161C1F330
:101300000F2000F02BF91E46D91703EB11610912CB
:10131000A3EB012188B200F021F92C2000F00EF996
:1013200070BD00002DE9F84F80460E4617461C465A
:10133000B3462046E31704EB5373DB1021464FEA14
:10134000E47C04EB5C7C4FEAEC0CA4EBCC0CBCF131
:10135000000F02D04FF0010C01E04FF0000C63448D
:10136000224604EBD27C4FEA6C0C03FB0CF3DBB29D
:101370000093A7F12000C7B2002556E00C2C07D13E
:1013800007EB47002B4901EB800010F8059013E0B4
:10139000102C05D1284800EB071010F805900BE041
:1013A000182C07D107EBC700244901EB800010F887
:1013B000059001E0BDE8F88F4FF0000A2FE009F03A
:1013C000800030B11E48028831464046FFF748FF92
:1013D00007E00A9828B91B48028831464046FFF7C3
:1013E0003FFF4FEA49604FEA1069701C86B2164809
:1013F0004088B04200DCDDE7A6EB0B00A0420AD13A
:101400005E4608F101001FFA80F80F480088404549
:1014100000DCCFE706E00AF1010000F0FF0ABAF1B4
:10142000080FCCDB00BF681CC5B200988542A5DB65
:1014300000BFBFE7083000087C3400086C3A0008A1
:101440001400002016000020180000202DE9F84F9D
:1014500006460F4614461D464FF0000AD3460020AC
:1014600000907819401E83B23019401E82B239466E
:101470003046FFF703FF04FB05F040000090D04624
:1014800025E04FF000091CE00BF101010A9810F86B
:1014900001A04FF6FF7000EA0A2A0A9810F80B0024
:1014A00040EA0A0A07EB080291B206EB090290B281
:1014B0005246FFF7D5FE0BF1020B09F101001FFAAE
:1014C00080F9A145E0DB08F101001FFA80F8A8458A
:1014D000D7DBBDE8F88F2DE9F84704460D46904666
:1014E0009946DDE9096704F0FF0A08EB04001FFADA
:1014F00080F809EB05001FFA80F916E0444502DB8D
:101500005446A81985B24D4500DB14E00020009038
:101510003A78334629462046FFF704FF304606EB6B
:10152000D07104EB61018CB27F1C38787E2802DC1C
:1015300038782028E2DA00BFBDE8F8870149088042
:1015400070470000FE07006C00B503460A461846C7
:10155000FFF7F4FF104600F001F800BD01490880D4
:10156000704700000008006C0112024A1180C1B2ED
:10157000118070470008006C08B50121482000F078
:1015800063F92020ADF8000010208DF8030003203F
:101590008DF8020069460A48FFF76BFC20210848D5
:1015A000FFF745FD2020ADF8000069460548FFF72C
:1015B00060FC20210348FFF73AFD01F0C7FB08BD9E
:1015C000000C01400018014000B58BB00121084615
:1015D00000F01AF91148FFF7F9FA11480090114884
:1015E00001900020029002200390002004908020AF
:1015F0000590400006908000079020200890C001D0
:10160000099000200A9069460448FFF785FB0121F4
:101610000248FFF7CFFA0BB000BD000008000240FF
:101620004C2401402400002000BFFEE7704700006A
:1016300070B5002100230F22C47804B3154C246830
:1016400004F4E064C4F5E064210AC1F10403CA4073
:10165000447804FA03F184781440214309010E4CC4
:101660000678A155047804F01F050124AC400578E4
:101670006D11AD0005F1E025C5F8004109E00478E1
:1016800004F01F050124AC40044D0678761145F89E
:10169000264070BD0CED00E000E400E080E100E0D9
:1016A00002490143024A1160704700000000FA0538
:1016B0000CED00E01CB500203949088039493A4852
:1016C000008801F095FC39A01821CDE900103C48B4
:1016D000438802880A215020FFF7FDFE39A0182117
:1016E000CDE9001036484388028828210A20FFF7F8
:1016F000F2FE2C481821CDE90010314843880288B9
:1017000028217820FFF7E7FE30A01821CDE900104E
:101710002B484388028846210A20FFF7DCFE214837
:101720001821CDE9001026484388028846217820F8
:10173000FFF7D1FE27A01821CDE9001020484388EB
:10174000028864210A20FFF7C6FE16481821CDE959
:1017500000101B484388028864217820FFF7BBFEF5
:101760001FA01821CDE90010154843880288822166
:101770000A20FFF7B0FE0B481821CDE900101048F1
:101780004388028882217820FFF7A5FE164864234B
:101790001A46AA2100900A20FFF758FE1CBD00003F
:1017A0001400002040000020220000205265616CDF
:1017B0002D74696D6520646973706C617900000037
:1017C000180000204865696768743A004F757450C6
:1017D00075743A00537572706C75733A00000000AE
:1017E00043616D6572613A0020790008704700001E
:1017F00001460020034A506820F4404008435060EE
:10180000704700000010024029B1064A52690243A5
:10181000044B5A6104E0034A52698243014B5A6106
:10182000704700000010024029B1064AD269024305
:10183000044BDA6104E0034AD2698243014BDA6166
:10184000704700000010024029B1064A9269024325
:10185000044B9A6104E0034A92698243014B9A6106
:10186000704700000010024029B1064AD2680243C6
:10187000044BDA6004E0034AD2688243014BDA6029
:10188000704700000010024030B500210022002403
:1018900000232D4D6D6805F00C0121B1042905D000
:1018A000082923D105E0294D056022E0274D056078
:1018B0001FE0254D6D6805F47012234D6D6805F429
:1018C0008034022505EB92421CB9214D5543056039
:1018D0000BE01D4D6D6805F400351DB11C4D5543E1
:1018E000056002E0194D5543056002E0174D0560A3
:1018F00000BF00BF144D6D6805F0F0010909154DDA
:101900006B5C0568DD4045600F4D6D6805F4E06176
:10191000090A104D6B5C4568DD4085600A4D6D68B5
:1019200005F46051C90A0B4D6B5C4568DD40C5602C
:10193000054D6D6805F44041890B074D6B5CC5682A
:10194000B5FBF3F5056130BD0010024000127A00CE
:1019500000093D000000002010000020704710B575
:1019600000F002F810BD00000CB5002001900090BE
:101970003348006840F480303149086000BF304887
:10198000006800F4003000900198401C019000981D
:1019900018B90198B0F5A06FF1D12948006800F49A
:1019A000003010B10120009001E00020009000986C
:1019B000012843D12348006840F010002149086005
:1019C0000846006820F0030008600846006840F000
:1019D000020008601A484068194948600846406893
:1019E00048600846406840F48060486008464068A7
:1019F00020F47C1048600846406840F4E8104860D5
:101A00000846006840F08070086000BF0C4800681D
:101A100000F000700028F9D00948406820F0030069
:101A2000074948600846406840F00200486000BF2F
:101A30000348406800F00C000828F9D10CBD0000F4
:101A40000010024000200240042808D14FF0E0219D
:101A5000096941F004014FF0E022116107E04FF005
:101A6000E021096921F004014FF0E0221161704783
:101A70007047000010B504466FF00400FFF7E4FF64
:101A8000E11704EB5171C1F3C701074A1170104609
:101A9000007800EB4001C1EBC0104FF6FF7101EA86
:101AA000C0000249088010BD34000020360000202C
:101AB00010B51348006840F001001149086008465D
:101AC0004068104908400E494860084600680E49C1
:101AD00008400B4908600846006820F48020086030
:101AE0000846406820F4FE0048604FF41F008860FC
:101AF000FFF735FF4FF000600449086010BD00009B
:101B0000001002400000FFF8FFFFF6FE08ED00E0C5
:101B100000B59DB001210802FFF776FE0120079075
:101B2000002008900F20099000200A900B900C9044
:101B30000D90152000900190052002900020039048
:101B400004900590069006200E9000200F901090B3
:101B50001020119000201290149013901590169060
:101B60004FF480501790002018904FF48040199047
:101B700000201A9007A81B90CDF870D00EA8FFF790
:101B800005F901210620FFF7E7F81DB000BD0000B0
:101B900008B501214FF4B470FFF756FE4CF23370D4
:101BA000ADF8000018208DF8030003208DF8020026
:101BB00069461848FFF75DF94FF68070ADF80000F0
:101BC00018208DF8030003208DF8020069461248A2
:101BD000FFF74FF941F20100ADF8000018208DF831
:101BE000030003208DF8020069460C48FFF741F915
:101BF0000120ADF8000010208DF8030003208DF8BF
:101C0000020069460648FFF734F9012005490860DB
:101C100008BD0000001401400018014000200140F0
:101C2000000C01408081214210B5FFF7B1FFFFF7A2
:101C30006FFF322001F052F8DA20FFF77FFC78487E
:101C4000008878498880764800884FF6FF7101EA5D
:101C5000002074498880DB20FFF770FC7148808881
:101C60006F49098808436F498880084680886C4915
:101C7000098808436B498880084681886AA000F07B
:101C800071FBE020FFF75AFC0020FFF767FC1320F0
:101C9000FFF764FC1820FFF761FC0420FFF75EFCEF
:101CA0000F20FFF75BFC0620FFF758FC3A20FFF7F8
:101CB00055FC5620FFF752FC4D20FFF74FFC032048
:101CC000FFF74CFC0A20FFF749FC0620FFF746FC13
:101CD0003020FFF743FC3E20FFF740FC0F20FFF7CA
:101CE0003DFCE120FFF72AFC0020FFF737FC132022
:101CF000FFF734FC1820FFF731FC0120FFF72EFC22
:101D00001120FFF72BFC0620FFF728FC3820FFF7F7
:101D100025FC3420FFF722FC4D20FFF71FFC062096
:101D2000FFF71CFC0D20FFF719FC0B20FFF716FC3A
:101D30003120FFF713FC3720FFF710FC0F20FFF7CF
:101D40000DFCC020FFF7FAFB1820FFF707FC172057
:101D5000FFF704FCC120FFF7F1FB4120FFF7FEFB7A
:101D6000C520FFF7EBFB0020FFF7F8FB1A20FFF779
:101D7000F5FB8020FFF7F2FB3620FFF7DFFB0820A2
:101D8000FFF7ECFB3A20FFF7D9FB5520FFF7E6FB06
:101D9000B020FFF7D3FB0020FFF7E0FBB120FFF7F7
:101DA000CDFBA020FFF7DAFBB420FFF7C7FB022032
:101DB000FFF7D4FBB620FFF7C1FB0020FFF7CEFBF7
:101DC0002220FFF7CBFB3B20FFF7C8FBE920FFF702
:101DD000B5FB0020FFF7C2FBF720FFF7AFFBA92000
:101DE000FFF7BCFB5120FFF7B9FB2C20FFF7B6FB38
:101DF0008220FFF7B3FB1120FFF7A0FB782000F053
:101E00006DFF2920FFF79AFB2C20FFF797FB00209E
:101E1000FFF7FAF94FF6FF70FFF7D2F910BD000097
:101E20000008006C18000020204C43442049443A2C
:101E300025780D0A000000002DE9F04101218807F6
:101E400000F052F850B10020204908602049086095
:101E5000204908600121880700F040F80221480766
:101E600000F042F878B34FF0804000F03AF80446B2
:101E700017480068251A1648046014480068401C7A
:101E800012490860D5B12846FEF7BEFB80461249CC
:101E9000FEF7C2F9064631464FF07E50FEF7EEF9E6
:101EA000074639460B480068FEF75EF980464FF05A
:101EB0008041FEF7E3F90749086000BF02214807A7
:101EC00000F00CF800BFBDE8F08100002800002001
:101ED0002C00002030000020BD378635CA43028226
:101EE00070470146888E704730B5024600200023B7
:101EF0000024158A05EA0103958905EA010413B156
:101F00000CB1012000E0002030BD000010B540F20F
:101F100025511D4800F0B8F810B31B4800F070F9C7
:101F2000C4B21A48008800F40040C8B917480088B5
:101F300000F4804060B10A2C03D0002013490880CF
:101F400020E01248008840F400401049088019E061
:101F50000D2C06D10D48008840F480400B490880C4
:101F600010E00A480088C0F30D0009490C540748E6
:101F70000088401C0549088008460088C72801DD04
:101F80000020088010BD000000380140380000200B
:101F90004A00002010B586B0044601210420FFF756
:101FA00053FC01218803FFF74FFC4FF40070ADF89C
:101FB000140003208DF8160018208DF8170005A9CD
:101FC0001E48FEF756FF4FF48060ADF81400042061
:101FD0008DF8170005A91948FEF74BFF0194002062
:101FE000ADF80800ADF80A00ADF80C00ADF810002F
:101FF0000C20ADF80E0001A9114800F095F8012160
:102000000F4800F028F840210D4800F01BF801228D
:1020100040F225510A4800F061F825208DF80000B3
:1020200003208DF801008DF8020001208DF80300D7
:102030006846FFF7FDFA06B010BD00000008014039
:102040000038014001F40072B2F5007F00D100BFFA
:10205000CA430280704721B1828942F400528281D2
:1020600004E082894DF6FF731A4082817047024670
:102070000020B1F5007F00D100BF13880B400BB1E9
:10208000012000E00020704770B5024600240023C4
:102090000025002040F66A16B14200D100BFC1F30E
:1020A000421501F01F03012606FA03F3012D02D1A8
:1020B0009689334006E0022D02D1168A334001E0B2
:1020C000968A33400C12012606FA04F4168834402E
:1020D00013B10CB1012000E0002070BDF0B5034643
:1020E000002400260025002040F66A17B94200D1DE
:1020F00000BF1846C1F3421401F01F06012707FA7A
:1021000006F5012C01D10C3004E0022C01D1103075
:1021100000E014301AB107682F43076002E0076837
:10212000AF430760F0BD00002DE9F04786B00546DB
:102130000E460024A24600BFA1460027B08900B188
:1021400000BF2F462C8A4CF6FF700440F0880443F1
:102150002C82AC894EF6F3100440B08831890843D4
:10216000718908430443AC81AC8A4FF6FF400440B8
:10217000B0890443AC8201A8FFF786FB1F48874261
:1021800002D1DDF810A001E0DDF80CA0A88900F470
:10219000004040B10AEBCA0000EB0A103168490068
:1021A000B0FBF1F807E00AEBCA0000EB0A10316857
:1021B0008900B0FBF1F86420B8FBF0F004012009BD
:1021C000642101FB1089A88900F4004040B132204D
:1021D00000EBC900B0FBF1F000F00700044308E099
:1021E000322000EB09106421B0FBF1F000F00F0089
:1021F00004432C8106B0BDE8F087000000380140A0
:1022000001468888C0F308007047C1F30802828045
:10221000704700BFFEE7000010B586B004460121FC
:102220008804FFF701FB01210820FFF70DFB0121C6
:102230000420FFF709FB01210846FFF705FB0121F8
:102240003248FEF7A1FE48F21000ADF8140010204D
:102250008DF8170003208DF8160005A92C48FEF70D
:1022600008FE10212A48FEF7E0FE4FF400412848FE
:10227000FEF7DDFE4FF48060ADF8140003208DF80A
:10228000160018208DF8170005A92248FEF7F1FD69
:102290004FF40060ADF8140004208DF8170005A974
:1022A0001C48FEF7E6FD4FF4165001900020ADF8F3
:1022B0000800ADF80A00ADF80C00ADF810000C20D5
:1022C000ADF80E0001A91448FFF72EFF012240F2DD
:1022D00025511148FFF702FF012240F224410E4828
:1022E000FFF7FCFE01210C48FFF7B5FE27208DF813
:1022F000000000208DF801008DF8020001208DF80B
:1023000003006846FFF794F906B010BD00023000E4
:1023100000080140000C0140004800400FB430B5F7
:10232000CBB0054601AC50A800904FF4947101A8C1
:10233000009B4F9A00F03AF8002000900BE014F850
:10234000011B2846FFF761FF00BF40212846FFF729
:102350008EFE0028F9D020780028F0D14BB030BC98
:102360005DF814FB0FB4054B10B503A9044A02989D
:1023700000F004F910BC5DF814FB0000292D0008E2
:102380003C0000200FB4084B10B504A902AA039822
:1023900000F0F4F8044602A9002000F091FC204669
:1023A00010BC5DF814FB0000C12C00087CB504468D
:1023B00000201D46164600290BD0491ECDE90041DC
:1023C000044B6A462946304600F0D8F8009A0021AE
:1023D00011707CBDAB2C000802E008C8121F08C1B8
:1023E000002AFAD170477047002001E001C1121F96
:1023F000002AFBD1704700002DE9FF5F82B0002169
:10240000DDE90430020DDDF840B0034318D044F696
:102410001050A2F2FF3242431514119801281FD028
:10242000A5EB0B00401C5FEA000A4FF000064E4F80
:10243000DFF83891B046504615D5CAF1000413E0D4
:10244000119801244AA3012801D16FEA0B010298D7
:10245000119AC0E90031C0E9024206B0BDE8F09F20
:10246000CBF10000DFE704460021404A491842EB67
:102470000450CDE9001012E0E00707D032463B4699
:1024800040464946FDF7DFFF8046894632463B46D7
:1024900010461946FDF7D7FF06460F466410002C7C
:1024A000EAD1DDE90401DDE90023BAF1000F06DA23
:1024B000FDF7C9FF42464B46FDF7C5FF05E0FEF7B5
:1024C00034F842464B46FEF730F804460E460022EA
:1024D000284BFEF7F3F903D84FF0FF30014607E031
:1024E0000022254B20463146FDF706FFFEF7CEF9C8
:1024F000102409E0002C0ADB0A220023FEF7D0F8A2
:10250000039B30321A55641E50EA0102F2D1641C5A
:10251000039AC4F111031444119A012A03D0012231
:1025200008430DD10AE0084304D000204FF0110BFE
:10253000119072E7A3EB0B056D1E0DE05B4504DD0A
:102540004FF0000205F1010504E003DA4FF000024C
:10255000A5F10105002AECD002981199C0E90231D9
:10256000C0E9004579E70000000014400000F03F9A
:10257000300000000000F0430000E03F2DE9FF4F75
:1025800095B09B468946064600250FE2252877D15F
:1025900000242746F84A0121059400E0044316F878
:1025A000013F203B01FA03F01042F7D130782A288E
:1025B00011D06FF02F033078A0F13002092A16D81D
:1025C000059A44F0020402EB820203EB420210443B
:1025D000761C0590EFE759F8042B0592002A03DAE0
:1025E000504244F40054059044F00204761C3078C4
:1025F0002E2816D116F8010F44F004042A280DD015
:102600006FF02F023078A0F13003092B09D807EBC7
:10261000870302EB4303C718761CF3E759F8047BE2
:10262000761C30786C280FD006DC4C2817D0682830
:102630000DD06A2814D104E0742810D07A280FD164
:102640000DE044F400140AE044F4801401E044F482
:1026500040147278824202D104F58014761C761CF4
:10266000307866280BD013DC582877D009DC002896
:1026700075D04528F6D04628F4D047281AD19DE1D8
:1026800018E0632835D0642879D0652812D195E107
:10269000702873D008DC6728F1D069286FD06E28C5
:1026A0000DD06F2806D1B5E073282CD0752875D0D1
:1026B000782874D05A46179990476D1C75E1C4F379
:1026C0000250022809D003280DD0D9F800100428A0
:1026D0000DD00D6009F1040967E1D9F80010EA177F
:1026E000C1E90052F6E7D9F800100D80F2E70D704D
:1026F000F0E719F8041B8DF8001000208DF8010098
:10270000EA46012003E059F804AB4FF0FF306107BF
:102710004FF0000102D40DE008F101018846B942F2
:102720000FDA8045F8DB1AF808100029F4D108E028
:1027300008F1010188468142FADB1AF808100029E5
:10274000F6D105985B46A0EB080721463846179A54
:1027500000F094FA284400EB080507E04DE029E179
:102760000DE01AF8010B5A4617999047B8F1010885
:10277000F7D25B4621463846179A13E142E00A2217
:102780000092C4F302524FF0000A022A08D059F80E
:1027900004CB032A4FEAEC710AD00DE029E02AE0CD
:1027A00009F1070121F00702F2E802C1914609E0B0
:1027B0000FFA8CFC4FEAEC71042A03D14FFA8CFC1F
:1027C0004FEAEC71002907DA0A460021DCF1000C1F
:1027D00061EB02012D2202E0220504D52B228DF8A7
:1027E0000420012203E0E20701D02022F7E790460F
:1027F00059E00A2102E010220DE010214FF0000AFA
:1028000000910BE010224FF0000A44F00404082766
:10281000009203E008224FF0000A0092C4F3025233
:10282000022A05D059F804CB0021032A08D009E078
:1028300009F1070121F00702F2E802C1914605E023
:102840001FFA8CFC042A01D10CF0FF0C4FF0000899
:10285000220728D5702806D0009B83F0100353EA86
:102860000A0305D00EE040228DF80420012208E082
:102870005CEA010206D030228DF804208DF80500B4
:1028800002229046009B83F0080353EA0A030AD110
:102890005CEA010201D1620705D530228DF80420DF
:1028A0004FF001087F1E582804D034A003900EA8D2
:1028B00002900DE036A0F9E753466046009AFDF716
:1028C000EFFE84460398825C0298401E02900270DC
:1028D0005CEA0100F0D1029806A9081A00F1200A6A
:1028E000600702D524F4803400E00127574502DD5B
:1028F000A7EB0A0000E0002000EB0A010090059819
:102900004144401A0590E00306D45B462146179ADD
:10291000059800F0B3F90544002706E001A85A46DF
:10292000C05D179990476D1C7F1C4745F6DBE0039F
:102930000CD55B462146179A059800F09FF905448F
:1029400004E030205A46179990476D1C0099481EA4
:1029500000900029F5DC08E0029802995A460078B8
:10296000491C0291179990476D1CBAF10001AAF118
:10297000010AF1DC65E10000092801003031323341
:1029800034353637383961626364656600000000AB
:102990003031323334353637383941424344454695
:1029A0000000000000F058F90544761C307800283B
:1029B0007FF4ECAD19B02846BDE8F08F620700D473
:1029C000062709F1070222F0070CFCE80223E14682
:1029D00003F000485FEA080C02D00FF2702C0DE003
:1029E0005FEA045C02D50FF2682C07E05FEAC47C62
:1029F00002D00FF2602C01E0AFF2700C4FF0FF3804
:102A000023F00043CDF850C065280CD006DC4528E3
:102A100009D046281DD047283DD13DE0662818D072
:102A200067287ED138E00021112F01DB112000E062
:102A3000781CCDE9000106A90EA8FFF7DDFCDDE951
:102A40000F010E9A03910021009207F1010A0491EF
:102A50004DE04FF000400097CDE9011006A90EA807
:102A6000FFF7CAFCDDE90F0203920E9B11990022C9
:102A7000DDF80CA00093049211B9791C00EB010A57
:102A8000B7EB0A0004D4C0F1FF3007F1010A04904B
:102A9000AAEB0700019044E0012F00DA0127002192
:102AA000112F01DD112000E03846CDE9000106A913
:102AB0000EA8FFF7A1FCDDE90F010E9A039100219A
:102AC00004910092BA4621070CD40399514500DACB
:102AD0008A46BAF1010F05DD009AAAF10101515CA5
:102AE000302908D0B84202DA10F1040F06DA0121C9
:102AF000CDE9011015E0AAF10101E9E7002805DCA4
:102B0000049901440491AAEB000102E0411C5145E3
:102B100000DD8A460499401A401C01904FF00040A5
:102B20000290200704D40198504501DBCDF80480C1
:102B300000208DF84F0002980DF14F07B0F1004FC3
:102B400025D02B200E9002984FF0020800280CDAB6
:102B5000404202902D200E9007E00A210298FDF7D6
:102B600089FD3031029007F8011DB8F10001A8F18C
:102B70000108F2DC02980028EFD1791E0E98087047
:102B8000307800F0200040F0450007F8020D12A850
:102B9000C01B00F107081498007800B1012000EB79
:102BA0000A01019801EBE07105984144401A401E6A
:102BB0000590E00306D45B462146179A059800F07D
:102BC0005DF805441498007818B15A461799904753
:102BD0006D1CE00324D55B462146179A059800F04A
:102BE0004DF805441CE00498002807DBDDE90301EB
:102BF000884203DD0098405C179901E01799302066
:102C00005A469047049805F10105401C049001982C
:102C1000401E019004D12E205A46179990476D1CF2
:102C2000BAF10001AAF1010ADDDC05E017F8010B99
:102C30005A46179990476D1CB8F10001A8F1010898
:102C4000F4DC5B462146179A0598ABE62D000000A0
:102C50002B000000200000002DE9F0410446002573
:102C60001E461746880404D405E039462020B047A4
:102C70006D1C641EF9D52846BDE8F0812DE9F041B0
:102C8000044600251E469046C80301D5302700E0C3
:102C90002027880404D505E041463846B0476D1C1E
:102CA000641EF9D52846BDE8F0814A68002A06D09E
:102CB0000A68531C0B6010704868401E48607047DB
:102CC0000A68531C0B60107070470146002064298D
:102CD00001D100217047084600BFFBE70146114AB9
:102CE00012884A434FF0E0235A6100229A611A4643
:102CF000126942F001021A6100BF4FF0E022106930
:102D000000F001021AB100F48032002AF5D04FF031
:102D1000E022126922F001024FF0E0231A61002242
:102D20009A6170473600002070B504460D46E1B246
:102D30000548FFF76AFA00BF80210348FFF797F9BB
:102D40000028F9D0204670BD0038014008B54FF486
:102D50000840ADF8000010208DF8030003208DF826
:102D6000020069460448FEF784F84FF40061024807
:102D7000FEF75BF908BD0000000801409CB04FF071
:102D8000000800274FF4A060FEF78AFCFEF7AAF9BE
:102D90004820FEF76FFE00F0E3F8FEF7EDFB4FF47E
:102DA000E130FFF7F7F84FF4E130FFF735FAFEF7BF
:102DB0003BFFFEF77FFCFDF79DFE58A15C48FFF747
:102DC000ADFA00F001F900F009F9A6E00020FEF7E5
:102DD000A7F905462846012D06D002283AD0032837
:102DE00003D0042800D11CE096E00020514908607F
:102DF00000F0D6F800F0F2F8601E84B2E0B2FFF7FF
:102E000064FF814603A900F0F3F803A81821CDE977
:102E1000001049484388028828217820FEF75BFB90
:102E20007AE000F0C7F800F0CFF8601C84B2E0B29E
:102E3000FFF74BFF814603A900F0DAF803A8182139
:102E4000CDE900103C484388028828217820FEF70D
:102E500042FB61E000F0B8F800F0C0F80821374804
:102E6000FEF7DAF830B936A0FFF77CFA00203649D1
:102E7000086005E035A0FFF775FA012032490860C7
:102E8000FEF7EEF807463846FDF7C3FB86B230463C
:102E9000FDF7BAFB83463946FDF7BBF982462D495B
:102EA000FDF7BAF98146FDF7B4FB1FFA80F803A9D4
:102EB000304600F09DF803A81821CDE900101E4807
:102EC0004388028828217820FEF705FB22A01821DC
:102ED000CDE9001018484388028828219620FEF783
:102EE000FAFA03A9404600F083F803A81821CDE9B7
:102EF00000101148438802882821AA20FEF7EBFA27
:102F000016A01821CDE900100B484388028828211B
:102F1000D220FEF7E0FA00BF00BF57E720486172F9
:102F2000647761726520696E6974204F4B0D0A00E9
:102F3000003801409401234218000020000801409D
:102F40000D0AD3D0CBAE3100948121420D0ACEDEE2
:102F5000CBAE310000007A442E0000006D6D000001
:102F600008B501210420FEF76FFC4FF4C050ADF806
:102F7000000010208DF8030003208DF80200694640
:102F80000648FDF776FF4FF480510448FEF74DF8F0
:102F90004FF400610148FEF748F808BD0008014001
:102FA00010B54FF400610248FEF741F810BD000073
:102FB0000008014010B54FF480510248FEF737F881
:102FC00010BD00000008014010B54FF40061024838
:102FD000FEF72BF810BD00000008014010B54FF4BB
:102FE00080510248FEF721F810BD000000080140A2
:102FF00070B504460D46224602A12846FFF7C2F9E5
:1030000070BD0000257500000000000000000000F9
:1030100000000000000000003F4000000000000031
:1030200000003000400030004000000009000BC0EC
:103030003D000BC03D00090018C024407FE0224045
:1030400031800000180024C01B000D803240018038
:1030500003801C4027401C80074000401000600097
:1030600000000000000000000000000000001F80C1
:10307000204040200000402020401F800000000031
:10308000090006001F80060009000000040004007B
:103090003F800400040000000010006000000000F9
:1030A000000000000400040004000400040000000C
:1030B000000000400000000000000000002001C0EF
:1030C00006003800400000001F80204020402040C3
:1030D0001F800000000010403FC0004000000000C2
:1030E00018C0214022402440184000001080204099
:1030F000244024401B80000002000D0011003FC04E
:10310000014000003C8024402440244023800000F3
:103110001F80244024403440038000003000200001
:1031200027C03800200000001B8024402440244099
:103130001B8000001C0022C0224022401F80000093
:103140000000000008400000000000000000000037
:103150000460000000000000000004000A001100EC
:103160002080404009000900090009000900000012
:1031700000004040208011000A00040018002000D8
:1031800023402400180000001F80204027402940D1
:103190001F400000004007C039000F0001C0004080
:1031A00020403FC0244024401B8000001F8020405E
:1031B000204020403080000020403FC02040204080
:1031C0001F80000020403FC024402E4030C000003F
:1031D00020403FC024402E00300000000F0010802F
:1031E000204022403380020020403FC00400040001
:1031F0003FC02040204020403FC0204020400000F1
:103200000060202020203FC02000200020403FC040
:1032100024400B0030C0204020403FC020400040F0
:10322000004000C03FC03C0003C03C003FC0000065
:1032300020403FC00C4023003FC020001F802040A2
:10324000204020401F80000020403FC02440240038
:10325000180000001F802140214020E01FA0000036
:1032600020403FC02440260019C0004018C0244020
:103270002440224031800000300020403FC02040E8
:103280003000000020003F80004000403F802000D0
:1032900020003E0001C0070038002000380007C0B1
:1032A0003C0007C038000000204039C0060039C08B
:1032B000204000002000384007C0384020000000B7
:1032C000304021C02640384020C0000000000000EF
:1032D0007FE0402040200000000070000C000380D0
:1032E000004000000000402040207FE0000000007F
:1032F000000020004000200000000000001000102E
:10330000001000100010001000000000400000003D
:1033100000000000000002800540054003C000409E
:1033200020003FC0044004400380000000000380F0
:103330000440044006400000000003800440244094
:103340003FC00040000003800540054003400000EE
:10335000000004401FC0244024402000000002E080
:10336000055005500650042020403FC00440040092
:1033700003C000400000044027C0004000000000DF
:1033800000100010041027E00000000020403FC0A3
:103390000140070004C00440204020403FC00040DE
:1033A0000040000007C0040007C0040003C0000084
:1033B000044007C00440040003C000400000038034
:1033C0000440044003800000041007F0045004404F
:1033D00003800000000003800440045007F0001048
:1033E000044007C002400400040000000000064042
:1033F0000540054004C00000000004001F80044098
:1034000000400000040007800040044007C0004066
:103410000400070004C0018006000400060001C08B
:10342000070001C006000000044006C0010006C0FD
:10343000044000000410071004E0018006000400AE
:103440000000044005C006400440000000000000E9
:1034500004007BE040200000000000000000FFF0BE
:1034600000000000000040207BE00400000000009D
:1034700040008000400020002000400000000000CC
:10348000000000000000000000000000000000003C
:1034900000001FCC000C000000000000000008002D
:1034A000300060000800300060000000022003FCD3
:1034B0001E20022003FC1E200220000000000E1827
:1034C00011043FFF10840C78000000000F001084EE
:1034D0000F3800C0077818840078000000780F8447
:1034E00010C411240E9800E400840008080068004D
:1034F000700000000000000000000000000000005C
:10350000000007E0181820044002000000004002FC
:103510002004181807E000000000000002400240EC
:1035200001800FF001800240024000000080008016
:1035300000800FF800800080008000000001000D76
:10354000000E0000000000000000000000000080ED
:103550000080008000800080008000800000000C5F
:10356000000C000000000000000000000000000649
:10357000001800600180060018002000000007F01D
:10358000080810041004080807F0000000000804F0
:1035900008041FFC000400040000000000000E0CE2
:1035A00010141024104411840E0C000000000C189C
:1035B00010041104110412880C700000000000E0D7
:1035C0000320042408241FFC0024000000001F988E
:1035D000108411041104108810700000000007F01E
:1035E00008881104110418880070000000001C00F5
:1035F000100010FC13001C001000000000000E382A
:1036000011441084108411440E380000000007009B
:10361000088C10441044088807F0000000000000E7
:103620000000030C030C000000000000000000007C
:103630000001010600000000000000000000008002
:10364000014002200410080810040000022002209B
:1036500002200220022002200220000000001004AC
:1036600008080410022001400080000000000E0045
:103670001200100C106C10800F00000003E00C18FA
:1036800013E4142417C4082807D000000004003CE9
:1036900003C41C40074000E4001C000410041FFC8D
:1036A0001104110411040E880070000003E00C18CE
:1036B00010041004100410081C10000010041FFC5B
:1036C000100410041004080807F0000010041FFC88
:1036D0001104110417C410040818000010041FFC82
:1036E0001104110017C010000800000003E00C18BE
:1036F0001004100410441C780040000010041FFC4B
:1037000010840080008010841FFC1004000010044E
:1037100010041FFC1004100400000000000300014E
:10372000100110011FFE10001000000010041FFC0B
:10373000110403801464181C1004000010041FFC02
:103740001004000400040004000C000010041FFC1E
:103750001F0000FC1F001FFC1004000010041FFCD1
:103760000C04030000E010181FFC100007F008080C
:10377000100410041004080807F0000010041FFCD7
:1037800010841080108010800F00000007F00818CF
:1037900010241024101C080A07F2000010041FFC5B
:1037A0001104110011C011300E0C000400000E1C99
:1037B00011041084108410441C38000018001000FC
:1037C00010041FFC100410001800000010001FF867
:1037D00010040004000410041FF8100010001E0064
:1037E00011E0001C007013801C0010001FC0103C72
:1037F00000E01F0000E0103C1FC000001004180C87
:10380000163401C001C01634180C100410001C003E
:10381000130400FC13041C00100000000804101C1A
:103820001064108413041C04101800000000000031
:1038300000007FFE40024002400200000000300015
:103840000C0003800060001C000300000000400228
:10385000400240027FFE0000000000000000000067
:103860002000400040004000200000000001000156
:103870000001000100010001000100010000400002
:103880004000200000000000000000000000009840
:10389000012401440144014400FC000410001FFC09
:1038A000008801040104008800700000000000701E
:1038B0000088010401040104008800000000007079
:1038C00000880104010411081FFC0004000000F836
:1038D000014401440144014400C800000000010407
:1038E00001040FFC1104110411001800000000D69F
:1038F00001290129012901C90106000010041FFC4A
:10390000008401000100010400FC00040000010427
:10391000190419FC0004000400000000000000036A
:1039200000010101190119FE0000000010041FFC34
:103930000024004001B4010C010400000000100448
:1039400010041FFC0004000400000000010401FC3E
:103950000104010001FC0104010000FC010401FC60
:10396000008401000100010400FC0004000000F8D4
:10397000010401040104010400F80000010101FF39
:103980000085010401040088007000000000007040
:10399000008801040104010501FF00010104010484
:1039A00001FC00840104010001800000000000CC43
:1039B00001240124012401240198000000000100D9
:1039C000010007F80104010400000000010001F8F3
:1039D000000400040004010801FC0004010001804F
:1039E0000170000C001001600180010001F0010C69
:1039F000003001C00030010C01F0010000000104A2
:103A0000018C00740170018C01040000010101812E
:103A10000171000E001801600180010000000184A6
:103A2000010C013401440184010C0000000000007D
:103A30000000000001003EFC4002400200000000C7
:103A400000000000FFFF0000000000000000400236
:103A500040023EFC01000000000000000000600089
:103A60008000800040004000200020000000000096
:103A70000000000000000000000000000000000046
:103A80000000000000000000000000000000000036
:103A90000000000000000000000000000000000F17
:103AA00080380FFE380F8038000000000000000052
:103AB00000000000000000000000010000060000FF
:103AC0000C00003800003100000600000C00003837
:103AD000000030000000000000000000618000676E
:103AE000F807F980006180006180006180006180DA
:103AF0000067F807F9800061800000000000000006
:103B0000000001C0E003E0F00630080418081FFFC1
:103B1000FE040E080787F00381E0000000000000AB
:103B200001F000060C00040408060C7001F9C00046
:103B30000E00003BE000EC18070808040C18000316
:103B4000E00000000001E00007F003F818041C0882
:103B500004170807E1D003C0E00023B0003C0800D0
:103B600020080000100000000000000100003100EB
:103B7000003200001C0000000000000000000000F7
:103B80000000000000000000000000000000000035
:103B90000000000000000000000000007F0001FFA6
:103BA000C00780F00C001810000420000200000084
:103BB0000000002000021000040C00180780F00133
:103BC000FFC0007F000000000000000000000000B7
:103BD00000000000000000004200006600006600D7
:103BE000003C0000180003FFC0001800003C00006B
:103BF00066000066000042000000000008000008A7
:103C00000000080000080000080001FFC0000800D4
:103C10000008000008000008000008000000000084
:103C2000000100003100003200001C000000000014
:103C30000000000000000000000000000000000084
:103C40000000000008000008000008000008000054
:103C50000800000800000800000800000800000834
:103C600000000000000000000000000038000038E4
:103C7000000038000000000000000000000000000C
:103C8000000000000000000000000000000600002E
:103C90001C000070000180000E0000380000C00011
:103CA0000700001C000030000000000000000000C1
:103CB0007F8001FFE0038070060018040008040004
:103CC0000806001803807001FFE0007F80000000FC
:103CD00000000000000001000801000801000803C6
:103CE000FFF807FFF80000080000080000080000C7
:103CF0000000000000000001C03802C05804009815
:103D0000040118040218040418061C1803F818010A
:103D1000E0F800000000000000000001C0E003C067
:103D2000F004000804080804080806180803F4183A
:103D300001E7F00001E000000000000000000000CA
:103D40000300000D00001100006100008108030164
:103D50000807FFF80FFFF800010800010800000045
:103D60000000000000E007FCD00608080610080666
:103D70001008061008061838060FF00607C00000E5
:103D800000000000000000003F8001FFE0038430DD
:103D9000020818041008041008041008071810037B
:103DA0000FF00007C000000000000000000003C08A
:103DB000000700000600000600F80607F8061800D5
:103DC00006E00007000006000000000000000001FF
:103DD000E1E003F7F0063410041808041808040C96
:103DE00008040C0806161803F3F001C1E0000000F7
:103DF00000000000F80003FC300306380402080449
:103E000002080402080404100308F001FFC0007F48
:103E100000000000000000000000000000000000A2
:103E2000000000007038007038007038000000009A
:103E30000000000000000000000000000000000082
:103E40000000000000000000301A00301C000000DC
:103E50000000000000000000000000000000000062
:103E60000000000800001400002200004100008053
:103E7000800100400200200400100800080000003B
:103E800000000000210000210000210000210000AE
:103E9000210000210000210000210000210000215C
:103EA00000000000000000000000080008040010EE
:103EB000020020010040008080004100002200003C
:103EC000140000080000000000000003C00004C04F
:103ED00000040000080038080F38080838081000EF
:103EE0000C300007E00003C00000000000000000EC
:103EF0003F8000FFE0038070020F1006708804C04E
:103F000088048308047F8802C09003012000FE40DB
:103F10000000080000180001F8003E0801C2000778
:103F2000020007E20000FE00001FC80001F80000C8
:103F30003800000804000807FFF807FFF804080825
:103F400004080804080804080806180803F41801FF
:103F5000E7F00001E0000000000000003F8001FFEA
:103F6000E003807002001804000804000804000840
:103F70000400100600200780C000000004000807AD
:103F8000FFF807FFF8040008040008040008040014
:103F90001802001003807001FFE0007F8000000025
:103FA00004000807FFF807FFF804080804080804DD
:103FB0000808040808043E08040008060018010068
:103FC0006000000004000807FFF807FFF804080875
:103FD000040800040800040800043E00060000066F
:103FE0000000018000000000000000003F8001FF91
:103FF000E0038070060018040008040208040208A8
:104000000203F00783F0000200000200040008072A
:10401000FFF807FFF804080800080000080000087F
:104020000000080004080807FFF807FFF80400086C
:104030000000000000000400080400080400080755
:10404000FFF807FFF8040008040008040008000057
:104050000000000000000000000600000700000152
:1040600004000104000104000307FFFE07FFFC0435
:10407000000004000004000004000807FFF807FF28
:10408000F8040C08001800003E0004C7800503C8AF
:104090000600F804003804001800000804000807AF
:1040A000FFF807FFF80400080000080000080000FF
:1040B0000800000800000800001800006000000070
:1040C00004000807FFF807800807FC00007FC00015
:1040D00003F80007C000780007800807FFF807FF13
:1040E000F804000804000807FFF807000803C000F0
:1040F00000E000003800001E000007000001C004BE
:1041000000F007FFF8040000000000007F8001FFBE
:10411000E003807006001804000804000806001878
:1041200003003001FFE0007F80000000040008076A
:10413000FFF807FFF8040408040400040400040462
:1041400000040400060C0003F80001F00000000069
:10415000000000007F8001FFE003807006008804FB
:1041600000880400C806003C03003E01FFE6007F13
:104170008400000004000807FFF807FFF80408089F
:10418000040800040C00040F00040BC00610F00328
:10419000F03801E00800000800000001E0F803F03A
:1041A00030063010041808041808040C08040C0821
:1041B0000206180207F00781E000000001800006F7
:1041C000000004000004000004000807FFF807FFD7
:1041D000F80400080400000400000600000180004C
:1041E00004000007FFE007FFF004001800000800CB
:1041F000000800000800000800000804001007FF85
:10420000E004000004000006000007E00007FE00D4
:10421000041FE00001F80000380001E0043E000740
:10422000C00006000004000004000007E00007FFD3
:10423000C0041FF80007C007F80007FF80043FF81C
:104240000007C004F800070000040000000000049C
:10425000000806001807C07805F1C8003E00001FDE
:10426000800463E80780F8060018040008000000D6
:1042700004000006000007800007E008047C080036
:104280001FF80007F800180804E0080700000600FF
:10429000000400000000000100080600380400F8D7
:1042A0000403E8040F08047C0805F00807C00807A9
:1042B0000018040060000000000000000000000082
:1042C000000000000000003FFFFE2000022000026E
:1042D0002000022000022000020000000000000078
:1042E000000008000007000000C0000038000006C1
:1042F000000001C000003000000E000001000000BE
:104300000000000000002000022000022000022027
:1043100000022000023FFFFE00000000000000003D
:104320000000000000000000000000000008000085
:1043300010000030000020000030000010000008D5
:10434000000000000000000000000100000100006B
:104350000100000100000100000100000100000157
:104360000000010000010000010000010000000049
:1043700000000000002000002000001000001000DD
:10438000000000000000000000000000000000002D
:104390000000000000F00019F8001B1800220800BF
:1043A0002608002408002410003FF8001FF8000031
:1043B0000800001800000004000007FFF80FFFF0DD
:1043C000001818001008002008002008003018000D
:1043D0001FF0000FC00000000000000007C0001F19
:1043E000F0001830002008002008002008003C08D9
:1043F000001C100000600000000000000000000031
:1044000007C0001FF0003818002008002008002016
:104410000804101007FFF80FFFF000001000000064
:104420000000000000000007C0001FF00012300074
:104430002218002208002208003208001E10000E78
:1044400020000000000000002000002008002008DC
:1044500001FFF803FFF806200804200804200807DD
:10446000200003000000000000000000000E000E0D
:104470006E001FF30031B10020B10020B100319176
:10448000001F13002E1E00200E003000000000044C
:10449000000807FFF80FFFF80010080020000020B8
:1044A00000002008003FF8001FF80000080000008E
:1044B000000000000000002008002008002008067E
:1044C0003FF8063FF8000008000008000008000060
:1044D00000000000000000000000000003000003D6
:1044E000002001002001002003063FFE063FFC00E3
:1044F000000000000000000000000004000807FFAA
:10450000F80FFFF8000188000300002FC00038F802
:104510000020380020080000080000000000000013
:10452000000004000804000804000807FFF80FFF5B
:10453000F80000080000080000080000000000006B
:10454000002008003FF8003FF8001008002000009D
:104550003FF8003FF8001008002000003FF8003F3F
:10456000F8000008000000002008003FF8003FF8B5
:10457000001008001000002000002008003FF80094
:104580001FF80000080000000000000007C0000F36
:10459000F000183000300800200800200800300823
:1045A000001830000FF00007C000000000000000FD
:1045B0002001003FFF003FFF0010110020090020F4
:1045C00008002008003038001FF0000FC000000075
:1045D0000000000007C0001FF0003818002008008D
:1045E0002008002009001011001FFF003FFF0000FD
:1045F00001000000002008002008002008003FF80B
:10460000003FF80008080010080020080020000003
:104610003000003000000000000000000000000C2E
:1046200078001E18003308002308002108002188A4
:104630000021980030F00038600000000000000009
:10464000200000200000200000FFF003FFF8002001
:1046500008002008002008000030000000000000D2
:10466000000000002000003FF0007FF8000018006C
:104670000008000008002010003FF8007FF0000054
:1046800010000000000000002000003000003C008E
:10469000003F800023F000007800007000238000BD
:1046A0003C00003000002000002000003C00003FE3
:1046B000E00023F80000E0002700003E00003FE09B
:1046C0000021F80001E0003E000020000000000092
:1046D0002008002008003838003E680027800003CA
:1046E000C8002CF80038380020180020080000000E
:1046F000000000002000003003003C01003F830068
:1047000023EC000070002380003C0000200000200B
:104710000000000000000000000000380800203801
:104720000020F80023E8002F88003E080038080029
:1047300020180000700000000000000000000000D1
:10474000000000000000000008000014001FF7FC3B
:104750003000062000020000000000000000000001
:104760000000000000000000000000000000FFFF4B
:10477000FF0000000000000000000000000000003A
:104780000000000000002000023000061FF7FC00BF
:1047900014000008000000000000000000000000FD
:1047A0000000000000000018000060000040000051
:1047B0004000002000001000000800000400000479
:1047C00000000C00001000000000000000000000CD
:1047D00000000000000000000000000000000000D9
:1047E00000000000000000000000000000000000C9
:1047F00000000000000000000000000000000000B9
:1048000000000000000000000000000000000000A8
:104810000000000000000000000000000000000098
:104820000000000000000000000000000000000088
:104830000000000000000000000000000000000078
:104840000000000000000000000000000000000068
:104850000000000000000000000000000000000058
:1048600007F000C007FFE1E007F001E0000000C032
:104870000000000000000000000000000000000038
:104880000000000000000000000000000000000028
:104890000000000000000000000000000000000018
:1048A0000000000000000000000000000000000008
:1048B00000000000000000000000000000000000F8
:1048C00000000000000000000000000000000000E8
:1048D0000020000001C00000078000001F00000051
:1048E0001E0000001C20000001C000000780000026
:1048F0001F0000001E0000001C000000000000005F
:1049000000000000000000000000000000000000A7
:104910000000000000000000000000000000000097
:104920000000000000000000000000000000000087
:104930000000000000000000000000000000000077
:1049400000000000000000000000000000180C0043
:1049500000180C0000180FE0001FFC0003F80C000A
:1049600000180C0000180C0000180C0000180C00B7
:1049700000180FE0001FFC0003F80C0000180C00EA
:1049800000180C0000000000000000000000000003
:104990000000000000000000000000000000000017
:1049A0000000000000000000000000000000000007
:1049B00000000000000000000000000000000000F7
:1049C00000000000000000000000000000000000E7
:1049D00000000780007807C000FC0640010E0020A0
:1049E00003070020020380200FFFFFFC0201C0200C
:1049F0000200E0600130704001F03F8000F01F00D5
:104A000000000000000000000000000000000000A6
:104A10000000000000000000000000000000000096
:104A20000000000000000000000000000000000086
:104A30000000000000000000000000000000000076
:104A4000000000000000000000FE000001FF000068
:104A50000301800002008060030181C001FF0700A4
:104A600000FE18000000E0000003BF00000CFFC0C3
:104A70000071806001C10020030180600000FFC060
:104A800000003F00000000000000000000000000E7
:104A90000000000000000000000000000000000016
:104AA0000000000000000000000000000000000006
:104AB00000000000000000000000000000000000F6
:104AC000000000000000000000001F0000007FC088
:104AD00000FCC0C001FF80600303E02002027820D8
:104AE00002061E2003FC074001F00380000103C002
:104AF00000011C600001E0200001002000010040D6
:104B00000000018000000000000000000000000024
:104B10000000000000000000000000000000000095
:104B20000000000000000000000000000000000085
:104B30000000000000000000000000000000000075
:104B40000000000000000000000000000020000045
:104B50001C6000001C4000001F8000000F000000CF
:104B60000000000000000000000000000000000045
:104B70000000000000000000000000000000000035
:104B80000000000000000000000000000000000025
:104B90000000000000000000000000000000000015
:104BA0000000000000000000000000000000000005
:104BB00000000000000000000000000000000000F5
:104BC00000000000000000000000000000000000E5
:104BD00000000000000000000000000000000000D5
:104BE000000000000007F800003FFF00007807C049
:104BF00001C000E0030000300400000808000004C9
:104C00001000000200000000000000000000000092
:104C10000000000000000000000000000000000094
:104C20000000000000000000000000000000000084
:104C30000000000000000000000000000000000074
:104C40000000000000000000000000001000000252
:104C500008000004040000080300003001C000E068
:104C6000007807C0003FFF000007F80000000000C8
:104C70000000000000000000000000000000000034
:104C80000000000000000000000000000000000024
:104C90000000000000000000000000000000000014
:104CA0000000000000000000000000000000000004
:104CB00000000000000000000000000000000000F4
:104CC00000000000000000000000000000000000E4
:104CD000000C1800000E3800000E380000063000EE
:104CE000000360000061438000FFFF80006143001B
:104CF0000003600000063000000E3800000E38008F
:104D0000000C18000000000000000000000000007F
:104D10000000000000000000000000000000000093
:104D20000000000000000000000000000000000083
:104D30000000000000000000000000000000000073
:104D40000000000000000000000000000000000063
:104D50000000800000008000000080000000800053
:104D60000000800000008000007FFF000000800045
:104D70000000800000008000000080000000800033
:104D800000008000000000000000000000000000A3
:104D90000000000000000000000000000000000013
:104DA0000000000000000000000000000000000003
:104DB00000000000000000000000000000000000F3
:104DC00000000000000000000000000000000001E2
:104DD000000000E3000000E2000000FC000000789A
:104DE00000000000000000000000000000000000C3
:104DF00000000000000000000000000000000000B3
:104E000000000000000000000000000000000000A2
:104E10000000000000000000000000000000000092
:104E20000000000000000000000000000000000082
:104E30000000000000000000000000000000000072
:104E400000000000000000000000000000008000E2
:104E50000000800000008000000080000000800052
:104E60000000800000008000000080000000800042
:104E70000000800000008000000080000000800032
:104E800000008000000000000000000000000000A2
:104E90000000000000000000000000000000000012
:104EA0000000000000000000000000000000000002
:104EB00000000000000000000000000000000000F2
:104EC00000000000000000000000000000000000E2
:104ED000000000C0000001E0000001E0000000C090
:104EE00000000000000000000000000000000000C2
:104EF00000000000000000000000000000000000B2
:104F000000000000000000000000000000000000A1
:104F10000000000000000000000000000000000091
:104F20000000000000000000000000000000000081
:104F30000000000000000000000000000000000071
:104F40000000000000000000000000000000000C55
:104F500000000038000000E00000038000000E00A8
:104F6000000038000000E00000038000000E000098
:104F70000038000000E00000038000000E00000088
:104F80001800000000000000000000000000000009
:104F90000000000000000000000000000000000011
:104FA0000000000000000000000000000000000001
:104FB00000000000000000000000000000000000F1
:104FC00000000000000000000000000000000000E1
:104FD000000FF800007FFF0000F00780018000C094
:104FE00003000060020000200200002002000020F8
:104FF00003000060018000C000E00380007FFF002C
:10500000000FF80000000000000000000000000099
:105010000000000000000000000000000000000090
:105020000000000000000000000000000000000080
:105030000000000000000000000000000000000070
:105040000000000000000000000000000000000060
:105050000000000000800020008000200080002070
:105060000080006001FFFFE003FFFFE00000006040
:1050700000000020000000200000002000000000D0
:105080000000000000000000000000000000000020
:105090000000000000000000000000000000000010
:1050A0000000000000000000000000000000000000
:1050B00000000000000000000000000000000000F0
:1050C00000000000000000000000000000000000E0
:1050D000007800E0009801600100026002000460B6
:1050E00002000860020010600200206002004060C0
:1050F000030080600183006001FE00E0007C078007
:10510000000000000000000000000000000000009F
:10511000000000000000000000000000000000008F
:10512000000000000000000000000000000000007F
:10513000000000000000000000000000000000006F
:10514000000000000000000000000000000000005F
:1051500000F0078001F007C00100004002000020BD
:105160000201002002010020020100200303802030
:105170000186804001FCC0C000787F8000001E00D6
:10518000000000000000000000000000000000001F
:10519000000000000000000000000000000000000F
:1051A00000000000000000000000000000000000FF
:1051B00000000000000000000000000000000000EF
:1051C00000000000000000000000000000000800D7
:1051D00000003800000048000001880000060800B8
:1051E000000C0810003008100040081001FFFFF00C
:1051F00003FFFFF003FFFFF000000810000008109D
:105200000000081000000000000000000000000086
:10521000000000000000000000000000000000008E
:10522000000000000000000000000000000000007E
:10523000000000000000000000000000000000006E
:10524000000000000000000000000000000000005E
:1052500000000780001F864003E1002003020020B9
:1052600003040020030400200304002003040020A2
:1052700003060040030301C00301FF8003007E001A
:10528000000000000000000000000000000000001E
:10529000000000000000000000000000000000000E
:1052A00000000000000000000000000000000000FE
:1052B00000000000000000000000000000000000EE
:1052C00000000000000000000000000000000000DE
:1052D0000007FC00003FFF000070C380008180C019
:1052E00001010060030200200202002002020020EF
:1052F000020200200203004001C180C000C0FF8004
:1053000000007E000000000000000000000000001F
:10531000000000000000000000000000000000008D
:10532000000000000000000000000000000000007D
:10533000000000000000000000000000000000006D
:10534000000000000000000000000000000000005D
:1053500000F0000003C00000038000000300000014
:10536000030007E003003FE00301C0000306000064
:105370000318000003600000038000000300000029
:10538000000000000000000000000000000000001D
:10539000000000000000000000000000000000000D
:1053A00000000000000000000000000000000000FD
:1053B00000000000000000000000000000000000ED
:1053C00000000000000000000000000000001F00BE
:1053D00000783F8000FC60C0018EC0400307802041
:1053E0000203002002018020020180200201C0206F
:1053F0000301E040018670C000FC3F8000781F0080
:10540000000000000000000000000000000000009C
:10541000000000000000000000000000000000008C
:10542000000000000000000000000000000000007C
:10543000000000000000000000000000000000006C
:10544000000000000000000000000000003F00001D
:1054500000FF81C001C0C1C0010060200200202007
:10546000020020200200202002002060020040C034
:105470000100C18000C18F00007FFE00001FF0000E
:10548000000000000000000000000000000000001C
:10549000000000000000000000000000000000000C
:1054A00000000000000000000000000000000000FC
:1054B00000000000000000000000000000000000EC
:1054C00000000000000000000000000000000000DC
:1054D00000000000000000000000000000000000CC
:1054E000000300C0000781E0000781E0000300C066
:1054F00000000000000000000000000000000000AC
:10550000000000000000000000000000000000009B
:10551000000000000000000000000000000000008B
:10552000000000000000000000000000000000007B
:10553000000000000000000000000000000000006B
:10554000000000000000000000000000000000005B
:10555000000000000000000000000000000000004B
:105560000006006600060078000000000000000051
:10557000000000000000000000000000000000002B
:10558000000000000000000000000000000000001B
:10559000000000000000000000000000000000000B
:1055A00000000000000000000000000000000000FB
:1055B00000000000000000000000000000000000EB
:1055C00000000000000000000000000000000000DB
:1055D000000080000001C0000003600000063000F1
:1055E000000C180000180C000030060000600300DA
:1055F00000C00180010000400200002004000010F3
:10560000000000000000000000000000000000009A
:10561000000000000000000000000000000000008A
:10562000000000000000000000000000000000007A
:10563000000000000000000000000000000000006A
:105640000000000000000000000000000004100046
:1056500000041000000410000004100000041000FA
:1056600000041000000410000004100000041000EA
:1056700000041000000410000004100000041000DA
:105680000004100000000000000000000000000006
:10569000000000000000000000000000000000000A
:1056A00000000000000000000000000000000000FA
:1056B00000000000000000000000000000000000EA
:1056C00000000000000000000000000000000000DA
:1056D00004000010020000200100004000C0018012
:1056E000006003000030060000180C00000C1800D9
:1056F00000063000000360000001C00000008000D0
:105700000000000000000000000000000000000099
:105710000000000000000000000000000000000089
:105720000000000000000000000000000000000079
:105730000000000000000000000000000000000069
:105740000000000000000000000000000000000059
:105750000078000001F8000002380000020000009C
:10576000040000C0040079E0040081E0040100C0EE
:1057700004030000020200000306000001FC000018
:1057800000F8000000000000000000000000000021
:105790000000000000000000000000000000000009
:1057A00000000000000000000000000000000000F9
:1057B00000000000000000000000000000000000E9
:1057C000000000000000000000000000000FF800D2
:1057D000003FFE000070078000C000C00101F840DB
:1057E0000307FC20021E0420023008200220302083
:1057F000023FFC20013F044001800CC000E03180EA
:10580000001FC200000000000000000000000000B7
:105810000000000000000000000000000000000088
:105820000000000000000000000000000000000078
:105830000000000000000000000000000000000068
:1058400000000000000000000000002000000060D8
:10585000000003E000003E200003E020003E2000A6
:1058600003E020000380200007FC2000003FE00050
:105870000003FE2000003FE0000001E000000020E7
:1058800000000020000000000000000000000000F8
:105890000000000000000000000000000000000008
:1058A00000000000000000000000000000000000F8
:1058B00000000000000000000000000000000000E8
:1058C00000000000000000000000000002000020B6
:1058D0000200002003FFFFE003FFFFE002010020C1
:1058E000020100200201002002010020020100202C
:1058F000030300200186806001FCC0C000F87F80A7
:1059000000001F0000000000000000000000000078
:105910000000000000000000000000000000000087
:105920000000000000000000000000000000000077
:105930000000000000000000000000000000000067
:105940000000000000000000000000000007F80058
:10595000003FFF000070078000C000C00100004051
:1059600003000020020000200200002002000020AE
:105970000200002001000040018000C003C001803F
:1059800000300600000000000000000000000000E1
:105990000000000000000000000000000000000007
:1059A00000000000000000000000000000000000F7
:1059B00000000000000000000000000000000000E7
:1059C00000000000000000000000000002000020B5
:1059D0000200002003FFFFE003FFFFE002000020C1
:1059E00002000020020000200200002003000060EE
:1059F00001000040018000C000F00780007FFE0031
:105A0000000FF8000000000000000000000000008F
:105A10000000000000000000000000000000000086
:105A20000000000000000000000000000000000076
:105A30000000000000000000000000000000000066
:105A40000000000000000000000000000200002034
:105A50000200002003FFFFE003FFFFE0020100203F
:105A600002010020020100200201002002010020AA
:105A700002038020020FE0200300006003C000E06A
:105A800000600300000000000000000000000000B3
:105A90000000000000000000000000000000000006
:105AA00000000000000000000000000000000000F6
:105AB00000000000000000000000000000000000E6
:105AC00000000000000000000000000002000020B4
:105AD0000200002003FFFFE003FFFFE002010020BF
